:020000040800F2
:10000000F81F0010550200083B450008A136000803
:1000100039450008DF210008316E000800000000AB
:100020000000000000000000000000009D0100082A
:100030001D33000800000000F1010008B16800084D
:100040006F0200086F0200086F0200086F020008CC
:100050006F0200086F0200086F0200086F020008BC
:100060006F0200086F0200086F0200086F020008AC
:100070006F0200086F0200086F0200086F0200089C
:100080006F0200086F0200086F0200086F0200088C
:10009000D52200086F0200086F0200086F020008F6
:1000A0006F0200086F0200086F0200086F0200086C
:1000B0006F0200086F0200086F0200086F0200085C
:1000C0006F0200086F0200086F0200086F0200084C
:1000D0006F0200086F0200082D6B00086F02000815
:1000E0006F0200086F0200086F0200086F0200082C
:1000F0006F0200086F0200086F0200086F0200081C
:100100006F0200086F020008216900086F020008F2
:100110006F020008A56A00086F0200086F0200085D
:100120006F0200086F0200086F0200086F020008EB
:100130006F0200086F0200086F0200086F020008DB
:100140006F020008912400086F0200086F02000887
:100150006F0200086F0200086F0200086F020008BB
:100160006F0200086F0200086F0200086F020008AB
:100170006F0200086F0200086F0200086F0200089B
:100180006F0200086F020008DFF80CD001F054F98C
:1001900000480047ED8D0008F81F00102A4B196831
:1001A0000868B0E8F04F80F30988BFF36F8F4FF015
:1001B000000080F3118870470000000006480068C6
:1001C000006880F3088862B661B6BFF34F8FBFF353
:1001D0006F8F00DF00BF00BF08ED00E0DFF80C000C
:1001E000016841F470010160704700BF88ED00E0D4
:1001F000EFF30980BFF36F8F134B1A681EF0100FD7
:1002000008BF20ED108A20E9F04F106008B44FF0CD
:10021000500080F31188BFF34F8FBFF36F8F09F049
:10022000D7FE4FF0000080F3118808BC19680868F9
:10023000B0E8F04F1EF0100F08BFB0EC108A80F34A
:100240000988BFF36F8F7047B0030010EFF305808C
:10025000704700000648804706480047FEE7FEE773
:10026000FEE7FEE7FEE7FEE7FEE7FEE7FEE7FEE766
:10027000C5680008890100089FED1A1AF5EE000A0A
:1002800040EE010ABDEEE00AF5EEC00A10EE100ADB
:10029000F1EE10FA38BF401E00EE100A1349F7EED7
:1002A000001AB8EEC00A30EEC00ADFED0F0A20EEE9
:1002B000200AFCEEC00A10EE900AC0F3080000EE1F
:1002C000900A01EB8000F8EE600A90ED011A70EEE2
:1002D000600A90ED000A71EEE01A21EE800A00EE4D
:1002E000810A704783F9223E0000004468AD00088F
:1002F000DFED190AB5EEC00A60EE200ABDEEE01A85
:1003000011EE100AF1EE10FA38BF401E00EE100A8E
:100310001349F7EE001AB8EEC00A30EEC00ADFED5E
:100320000F0A60EE200ABCEEE00A10EE100AC0F3DD
:10033000080000EE100A01EB8000B8EE400A90EDD4
:10034000011A70EEC00A90ED000A71EEE01A21EE7B
:10035000800A00EE810A704783F9223E00000044C3
:1003600068AD000870B405880E884468D1F804C0F0
:100370005368B54208D140884988884201BF118836
:100380008D425188884203D070BC6FF002007047E4
:1003900005FB00F1880827D094ED001ADCED000A77
:1003A00094ED010ADCED011A31EE201AD4ED020AB7
:1003B00070EE211A9CED020A83ED001AC3ED011ABA
:1003C00094ED031ADCED031A30EE800A401E71EE44
:1003D000210A83ED020A04F11004C3ED030A03F1BC
:1003E00010030CF1100CD7D111F0030030D0B0F194
:1003F000004F30D200282BDD211F1B1FACF104025F
:1004000010F0010F0AD091ED010AD2ED010A091D89
:10041000121D30EE200A83ED010A1B1D400817D083
:1004200091ED010AD2ED010A401E30EE200A83ED63
:10043000010A91ED020AD2ED020A01F1080102F16E
:10044000080230EE200A83ED020A03F10803E7D127
:1004500070BC00207047B4EC010A401EFCEC010A9D
:1004600030EE200AA3EC010AF5D1F1E701804280C9
:10047000436070472DE9F34F84B0049840680090C2
:10048000486801900498B0F800E04588DFEDFE0A66
:1004900000200290B0EE600AAE4506D10888498877
:1004A000884204BF7146864504D06FF0020006B052
:1004B000BDE8F08F01985FEA010C18BFB7EE001A93
:1004C0003DD000BFBEEB0C0117D0B1F1004F80F062
:1004D0001F82002911DD021F11F0010F1CBFC2EDA8
:1004E000010A121D4B1006D0C2ED010AC2ED020A2C
:1004F00008325B1EF8D100EB8100BCF10102A0ECD8
:10050000011A19D0B2F1004F80F00882002A13DDE1
:10051000031F12F0010F1CBFC3ED010A1B1D511078
:1005200008D000BFC3ED010AC3ED020A491E03F162
:100530000803F7D100EB8200BCF1010CC2D14FF0EF
:1005400000080395002D14BFB0EE602A002000F0D3
:10055000BF8100BF009908FB05F001EB800B0199FA
:10056000DBED002A01EB80000346F0EE421AC6459F
:1005700052D9AEEB0802ABEB850112F0010F17D098
:1005800001EB850191ED000AB5EEC00AF1EE10FA1B
:1005900007DDB4EEE10AF1EE10FA09DDF0EE401AE3
:1005A00006E0B1EE400AF4EEC01AF1EE10FAF5D30F
:1005B000521031D001EB850C9CED000AB5EEC00A5B
:1005C000F1EE10FA05DDB4EEE10AF1EE10FA09DD04
:1005D00006E0B1EE400AF4EEC01AF1EE10FA01D2D4
:1005E000F0EE401A01EBC50191ED000AB5EEC00A2C
:1005F000F1EE10FA05DDB4EEE10AF1EE10FA09DDD4
:1006000006E0B1EE400AF4EEC01AF1EE10FA01D2A3
:10061000F0EE401A521ECDD1F5EEC01AF1EE10FAEE
:1006200000F07381F5EEC02A0126F1EE10FA009970
:10063000D4BFB1EE620AB0EE620AB4EE610AF1EE26
:1006400010FA1CBFAEEB0802B2F1010C47D005FB5B
:1006500008F201EB820292ED001A00BFB0EE410AEF
:1006600005FB06F4B5EEC00A00EB8404F1EE10FAC7
:10067000CCBFF0EE400AF1EE400AF4EE610AF1EE72
:1006800010FA28D1B5EB080C11D0BCF1004F7DD287
:10069000BCF1000F0BDD00BF92ED000AD1ED000AA6
:1006A000BCF1010CE2EC010AA1EC010AF4D1290031
:1006B0000ED0B1F1004F6AD2002909DD94ED000A95
:1006C000D0ED000A491EE4EC010AA0EC010AF5D1C4
:1006D000012002900BE0761CBCF1010CBED1029807
:1006E000012804D0F5EEC02AF1EE10FA7ED09BED81
:1006F000000AB5EB08009A465946064622D0B0F1EA
:10070000004F74D200281DDD091F10F0010F06D024
:10071000F0EE400A80EEA01A81ED011A091D40108A
:1007200010D000BFD1ED010A401E80EE801A81ED8D
:10073000011A91ED021AC1EE000AC1ED020A01F19F
:100740000801EFD1280026D0B0F1004F7ED200285A
:1007500021DDAAF1040110F0010F06D0D1ED010A4C
:1007600080EE801A81ED011A091D401013D000BFE0
:10077000D1ED010A401E80EE801A81ED011AD1ED03
:10078000020A80EE801A81ED021A01E0CBE0D6E089
:1007900001F10801ECD1DDE900124FF000095FEA38
:1007A0000E0773D0C14504BF01EB860102EB850241
:1007B00074D091ED000ADC465046330035D01C461B
:1007C000B6F1004F7ED2002C2FDD0B1FABF1040CD5
:1007D00016F0010F0FD0F0EE400ADCED011AB0EE7A
:1007E000601A00EEE11A83ED011A01E08DE0B1E03C
:1007F0001B1D0CF1040C741015D000BFD3ED010AC1
:100800009CED011A40EE410AC3ED010AD3ED020A44
:100810009CED021A0CF1080C40EE410AC3ED020AED
:100820000833641EEAD101EB86012B0036D0B3F108
:10083000004F72D2002B31DDA2F1040CAAF10400AA
:1008400013F0010F0CD0DCED010A00E08BE090ED1D
:10085000011A001D40EE410ACCED010A0CF1040C16
:100860005C1019D0DCED010A90ED011A40EE410A4E
:10087000CCED010ADCED020A90ED021A083040EEE0
:10088000410ACCED020A03E0000000000DE005E0A3
:10089000641E0CF1080CE5D102EB830201EB880128
:1008A0007F1E09F101097FF47DAF009808F101086E
:1008B000001D00900398401E03907FF44BAE0299F8
:1008C000012900E058E004BF06B0BDE8F08F00BF8A
:1008D000B5EEC00AF1EE10FA7FF4E9AD04990EFB13
:1008E00005F3002B4A684FF000010BD902EB810C95
:1008F0009CED000AB5EEC00AF1EE10FA02D1491CD7
:100900008B42F3D88B427FF4D2AD6FF00400CEE57A
:10091000E0EC010A491EFBD1EFE538E0E0EC010A0A
:10092000521EFBD108E692ED000AD1ED000ABCF19F
:10093000010CE2EC010AA1EC010AF4D1B7E694ED56
:10094000000AD0ED000A491EE4EC010AA0EC010AFD
:10095000F5D1BDE6D1ED000A401E80EE801AA1EC73
:10096000011AF7D1EEE6D3ED000A401E80EE801AA0
:10097000A3EC011AF7D10EE7BCEC011AD1ED000A85
:100980005B1E40EE410AE1EC010AF5D14DE7B0EC07
:10099000011AD2ED000A5B1E40EE410AE2EC010AA8
:1009A000F5D17BE72DE9F04F82B04668536801939B
:1009B000058847884B88002000900888874201BF3F
:1009C000B2F800C06545528893421EBF6FF0020026
:1009D00002B0BDE8F08F9FED412A4FEA970EC7F3B2
:1009E000400B00BFDDE9000202EB800A4A6898462E
:1009F0004FF00009B0EE420AB4465FEA0E0025D07F
:100A000092ED001ADCED001A02EB8302DCED010A24
:100A100001EE810A92ED001A02EB8302401ED2ED34
:100A2000001A02EB830200EE810A9CED021ADCED53
:100A3000030A00040CF1100C000C01EE210A92EDE7
:100A4000001A02EB830200EE810AD9D117F00300ED
:100A500026D0ACF10404A2EB830210F0010F08D001
:100A600002EB8302D4ED010A92ED001A241D00EE80
:100A7000810A5FEA0B0013D002EB830CD4ED010A6C
:100A80009CED001A02EBC302401E00EE810AD4ED79
:100A9000020A92ED001A04F1080400EE810AEBD17B
:100AA00009F10100AAEC010A1FFA80F9486800EB7D
:100AB0008902A8F101001FFA80F8B8F1000F99D15E
:100AC000009806EB8706184480B20090681E050463
:100AD0002D0C87D102B00020BDE8F08F000000008F
:100AE00070B405880E884468D1F804C05368B542D4
:100AF00008D140884988884201BF11888D425188B9
:100B0000884203D070BC6FF00200704705FB00F113
:100B1000880827D094ED001ADCED000A94ED010A54
:100B2000DCED011A31EE601AD4ED020A70EE611AA2
:100B30009CED020A83ED001AC3ED011A94ED031A2D
:100B4000DCED031A30EEC00A401E71EE610A83ED3F
:100B5000020A04F11004C3ED030A03F110030CF1BF
:100B6000100CD7D111F0030030D0B0F1004F30D2CB
:100B700000282BDD211F1B1FACF1040210F0010F18
:100B80000AD091ED010AD2ED010A091D121D30EEC5
:100B9000600A83ED010A1B1D400817D091ED010A80
:100BA000D2ED010A401E30EE600A83ED010A91ED9C
:100BB000020AD2ED020A01F1080102F1080230EE48
:100BC000600A83ED020A03F10803E7D170BC00203C
:100BD0007047B4EC010A401EFCEC010A30EE600ADA
:100BE000A3EC010AF5D1F1E72DE9F04F028847683F
:100BF000B0F802804888D1F8049082B04FF0000A23
:100C00001646824207BF098888456FF0020002B08D
:100C100018BFBDE8F08F4FEA980B02EB420001903D
:100C2000C8F34000CDF8000009EB8A01BBF1000FCA
:100C300033D0019801EB820C01EB80043B46E64681
:100C400001EBC2054FEA0B0093ED000A401E81ED57
:100C5000000A93ED010A01EB02118CED000A93EDFD
:100C6000020A0CEB021C85ED000A93ED030A05EB6A
:100C7000021584ED000A04EB021403F11003E3D122
:100C80000EEB820000EB820000EB8201ABF1010071
:100C9000504307EB0B1701EB001118F0030C21D0A8
:100CA0003B1FA1EB82011CF0010F06D093ED010A5E
:100CB00001EB82011B1D81ED000A009880B100BF8D
:100CC00093ED010A01EB820401EBC20184ED000AFD
:100CD00093ED020A401E81ED000A03F10803EFD1F3
:100CE00007EB8C070AF101001FFA80FA701E060458
:100CF000360C99D102B00020BDE8F08F40EA010324
:100D00009B0703D009E008C9121F08C0042AFAD2C1
:100D100003E011F8013B00F8013B521EF9D2704785
:100D2000D2B201E000F8012B491EFBD2704700222D
:100D3000F6E710B513460A4604461946FFF7F0FFDA
:100D4000204610BD2DE9FE4F804681EA0300C00F0A
:100D50000C46009021F0004123F00045B8EB020062
:100D6000A94105D24046214690461C460B46024604
:100D700023F00040104347D0270DC7F30A00C3F308
:100D80000A510290401A019040286BDAC3F3130015
:100D900040F4801B0098924620B10023D2EB030A56
:100DA00063EB0B0B01985946C0F14002504600F02E
:100DB00024FA06460D4650465946019A00F02CFA90
:100DC00010EB08006141002487EA115284EAE773BE
:100DD0001A4340D0009A62B3019A012A4FEA07529F
:100DE00015DC001B61EB02014FF0004202EA0752E2
:100DF000CDE90042001C41F5801132462B4600F03F
:100E000063FA03B0BDE8F08F40462146F9E7001BC6
:100E100061EB0201001C41F5801300185B412018B2
:100E2000A2F5001747EB030140EAD570B6196D41F2
:100E300011E06D084FEA360645EAC0754FEA0752E1
:100E4000001B61EB0201001C41F5801149084FEACB
:100E500030000019514132462B4603B0BDE8F04F37
:100E600000F023BA0098012240000023D0EB0202D8
:100E700063EBE073009821464FEAE074B8EB0000A2
:100E800061EB0401E9E783F000435BE781F0004197
:100E900058E72DE9FE4F81EA030404F0004421F0F5
:100EA000004100944FF0000B23F0004350EA01048E
:100EB0005ED052EA03045BD0C3F30A54C1F30A556F
:100EC0002C44A4F2F3340194A0FB0254C1F31301A7
:100ED00041F48011C3F3130343F4801301FB024474
:100EE00000FB034E840A970A44EA815447EA835779
:100EF000A4FB076802958D0A05FB07854FEA932C32
:100F000004FB0C542705029D4FEA065847EA1637A2
:100F1000B5EB08056EEB070C870E920E47EA8117BA
:100F200042EA8312A7FB0201B6EB0B0164EB00045B
:100F30002B0D43EA0C335E1844EB1C50DA46514645
:100F4000E7FB0201C5F313044FEA0B3343EA1453E2
:100F50004FEA0432019C43EA0603A4F10C04029414
:100F6000009CCDE900B400F0AFF903B0BDE8F08F0C
:100F700000200146F9E72DE9F04D81EA030404F071
:100F8000004B21F0004514464FF0000A23F00041C9
:100F900050EA050220D054EA01021DD0C5F30A57D9
:100FA0000246C5F31303C1F31300C1F30A5640F41C
:100FB000801543F48013A7EB0608101BD64608F2F1
:100FC000FD3873EB050002D308F1010801E0921827
:100FD0005B41B8F1000F03DA00200146BDE8F08D57
:100FE00000204FF48011064684460EE0171B73EB79
:100FF000050705D3121B63EB050306434CEA010CFE
:1010000049084FEA300092185B4150EA0107EDD1E0
:1010100052EA030012D082EA040083EA0501084381
:1010200005D0101BAB4106D20122002306E00022AE
:101030004FF0004302E06FF0010253101AEB06007C
:101040004CEB085110EB0A0041EB0B01BDE8F04DF1
:1010500000F02BB930B4044696230800214604D092
:10106000B62330BC002200F0F2B820460021F8E799
:101070000EB5C10F80EAE0700844CA07002140F2B3
:1010800033438DE80E000A460B4600F01DF903B00D
:1010900000BD0EB540F2334102910021CDE90011AF
:1010A0000A460B4600F010F903B000BD00F0004204
:1010B00030F000400AD0C10D01F56071C0F3160098
:1010C00042EA0151C208400711437047002001461F
:1010D0007047000030B5041E71F1000404DB4FF0CE
:1010E0000044404264EB0101141E73F1000405DB6F
:1010F0001C464FF00043524263EB04038B4208BF8F
:10110000824230BD30B5041E71F1000404DB4FF0A3
:101110000044404264EB0101141E73F1000405DB3E
:101120001C464FF00043524263EB0403994208BF50
:10113000904230BD01F0004330B421F0004150EA4C
:10114000010206D00A0DA2F56072C1F31301002A54
:1011500002DC30BC00207047440F44EAC104C100E7
:10116000E01830BC00EBC25000F068B830B50B4658
:10117000014600202022012409E021FA02F59D42C7
:1011800005D303FA02F5491B04FA02F52844151E9B
:10119000A2F10102F1DC30BD2DE9F05F054600202F
:1011A00092469B4688460646814640241BE02846D8
:1011B00041464746224600F051F953465A46C01A66
:1011C000914110D311461846224600F016F82D1A08
:1011D00067EB01084F4622460120002100F00DF880
:1011E00017EB00094E41201EA4F10104DFDC484644
:1011F00031462A464346BDE8F09F202A04DB203AC8
:1012000000FA02F1002070479140C2F1200320FA59
:1012100003F3194390407047202A06DBCB17203A8E
:1012200041FA02F043EAE07306E041FA02F3D040EB
:10123000C2F1200291400843194670470029A8BF17
:101240007047401C490008BF20F00100704710B4EF
:10125000B0FA80FC00FA0CF050EA010404BF10BCA4
:10126000704749B1CCF1200421FA04F411FA0CF1D1
:1012700018BF012121430843A3EB0C01CB1D4FEA0A
:1012800000614FEA102042BF002010BC704700EB05
:10129000C35010440029A4BF10BC7047401C490033
:1012A00008BF20F0010010BC704710B5141E73F188
:1012B000000408DA401C41F1000192185B411A4316
:1012C00001D120F0010010BD2DE9F04D92469B4662
:1012D00011B1B1FA81F202E0B0FA80F22032904608
:1012E000FFF78BFF04460F4640EA0A0041EA0B0174
:1012F00053465A46084313D0114653EA010019D009
:10130000C8F14002504600F0A9F805460E46504686
:1013100059464246FFF771FF084305D0012004E01B
:1013200020463946BDE8F08D0020054346EAE076C8
:101330002C4337430A986305E40AA0EB0800002217
:10134000FD0A44EA47540A3002D500200146E9E785
:10135000010510196941DDE9084500196941BDE839
:10136000F04DA2E72DE9F04D00231A461B1A8A41E1
:1013700003DB00200146BDE8F08DC1F30A52C1F342
:10138000130141F480154FF0000BD10702D1001872
:101390006D41521E0027044640F2FF11384601EB12
:1013A000620A3E468046024600204FF4801100F05B
:1013B00055F8C2197141BB1846EB0100B4EB030CA0
:1013C00075EB000C04D3E41A65EB000517460E46D6
:1013D000241908F101006D4180463428E3DDF91934
:1013E00046EB0600091BA84103D24FF0FF3213461B
:1013F00001E0002213461BEB070046EB0A51BDE853
:10140000F04DFFF752BFC1F30A52C1F3130140F28E
:10141000FF3341F480119A4202DA002001467047FE
:1014200040F233439A42A2F2334202DC524200F0CD
:1014300015B8FFF7E2BE0000064C074D06E0E06875
:1014400040F0010394E8070098471034AC42F6D30B
:10145000FEF79EFE80B70008B0B70008202A04DB24
:10146000203A21FA02F00021704721FA02F3D0401D
:10147000C2F12002914008431946704770B5C1F38C
:101480000A5201F000450024C1F3130140F2FF337A
:1014900041F480119A4201DA002070BD40F23343DA
:1014A0009A42A2F2334203DC5242FFF7D7FF00E038
:1014B00090402C43F1D0404270BD70B58C1810F8AC
:1014C000015B15F0070301D110F8013B2A1106D189
:1014D00010F8012B03E010F8016B01F8016B5B1EA3
:1014E000F9D12B0705D40023521E0DD401F8013B7E
:1014F000FAE710F8013BCB1A921C03E013F8015BEA
:1015000001F8015B521EF9D5A142D8D3002070BD6D
:1015100030B52DED068BC9B09FED7A8A7A4D002447
:10152000B0EE489AF0EE488ADFED789AB0EE00AA65
:10153000DFED77AA2A1DA91C734802F047FCB5F914
:10154000000048AA00EE100A47A9B8EEC00A20EE33
:10155000290A20EE0A0A20EE2A0A8DED460AB5F97C
:10156000020000EE100AB8EEC00A20EE290A20EEB2
:101570000A0A20EE2A0A8DED470AB5F9040000EEAA
:10158000100A46A8B8EEC00A20EE290A20EE0A0A80
:1015900020EE2A0A8DED480A07F012FB9DED460A5F
:1015A000032039EE009A9DED470A78EE808A9DED82
:1015B000480A38EE008A07F01EFC641CE4B2642C72
:1015C000B8D3DFED541A89EE210A88EEA11A8DED09
:1015D000460A20EE000AC8EE210A8DED471A01EEF8
:1015E000010ACDED480A00EEA00A07F011FC9DEDBE
:1015F000461AC1EE000A10EE900AFFF757FD41ECC3
:10160000100B05F05DFC9FED44AB51EC100B53EC5F
:101610001A2BFFF73EFC9DED480A41EC180BB1EE8A
:10162000400A10EE100AFFF741FD9DED470A41EC1C
:10163000190BB1EE400A10EE100AFFF737FD41EC2E
:10164000100BB0EE491AF0EE691A05F055FF53EC95
:101650001A2B51EC100BFFF71CFC9FED311B53ECC8
:10166000112BFFF710FC41EC100B9FED2F2BB0EE70
:10167000481AF0EE681A34A800F0FAFB482234A9A0
:1016800022A8FFF73BFB402224A96846FFF736FB60
:10169000DDE9222334A802F021FF482234A910A852
:1016A000FFF72CFB382214A96846FFF727FB10AC84
:1016B00094E80F0002F01AFDB0EE41AAF0EE61AA24
:1016C000B0EE429AF0EE629AB0EE438AF0EE638A90
:1016D00051EC100BFFF72EFD154C206051EC1A0B4E
:1016E000FFF728FD606051EC190BFFF723FDA060A8
:1016F00051EC180BFFF71EFDE06049B0BDEC068B06
:1017000030BD000000000000881900100000003803
:101710000AE81C410000C84200000000DCA54C4063
:101720000000000000806640000000000000000093
:101730003805001070B5224D2A1DA91C284602F05C
:1017400045FBB5F90000214C00EE100A04F13C0203
:10175000111FF8EEC00A9FED1B0A20EE801AF0EE72
:10176000000A61EE201A9FED181A61EE811AC4ED8D
:101770000D1AB5F9020001EE900AF8EEE11A61EED9
:10178000801A61EEA01A61EE811AC4ED0E1AB5F945
:10179000040001EE900A081FF8EEE11A21EE800A1B
:1017A00020EE200A20EE010A84ED0F0A07F008FA65
:1017B000343494EC030ABDE8704000F0F5BA000040
:1017C00088190010000000380AE81C413805001094
:1017D00030B52DED108B89B0FE4CFF48D4ED001ACA
:1017E00021EEA10A8DED020A94ED011AD4ED020A50
:1017F00094ED030A61EE81DA21EEA0DA61EE801A3F
:1018000020EEA0CA60EE80BACDED011A61EE011A99
:1018100061EE00CA20EE00BACDED031A61EE201A87
:10182000CDED001AD0ED040ACDED080AD0ED050A81
:10183000CDED070A90ED061A8DED061AD0ED00EAFF
:1018400090ED01AAD0ED02AA90ED07EAD0ED089A3A
:1018500090ED099A01F0C2FE84ED120B94ED100B8D
:1018600053EC102B94ED120B51EC100BFFF70BFB0C
:10187000FFF760FC00EE900A9FEDD81A80EE810A17
:1018800010EE100AFFF712FC94ED120B41EC180B4E
:1018900084ED100B2EEEAE0A0AEE0A0A0AEEAA0A30
:1018A00007F08EFA6EEE800A6AEE80FACDED050A38
:1018B0006AEE000A2EEE0E0ACDED040A09EEA90A20
:1018C00009EE090A07F07CFA2EEE00EA69EE80EADA
:1018D00029EE00FADDED080A9FEDC10A9DED061A1A
:1018E00060EE801ADDED070A21EE001A60EE800A34
:1018F0009FEDBC0ABC4821EE80AA20EE809A61EEE2
:10190000009AB0EECA0A10EE101A9FEDB80A814292
:1019100001DAB0EE40AAF0EEC90A10EE901A814248
:1019200001DAB0EE409AF0EEE90A10EE901A814228
:1019300001DAF0EE409AF6EE002AF0EE00AA32EE5E
:10194000CC0A6EEE2A0A6EEEAA1A30EE4B0A8DED24
:10195000070A20EE802A9DED000A9DED011A70EE27
:10196000413A2FEE2A1A3CEE8D0ACDED063A01EEF1
:10197000A32A9DED013A7CEECD3A01EE002A9DEDC1
:10198000000A30EE030A9DED033ACDED013A72EE06
:10199000C32A20EE800A60EEA30A32EECB3A72EE42
:1019A000CC3A01EE830A3BEEED3ACDED083A01EE7A
:1019B000030A3BEEAD3A41EE830A41EE230ACDED38
:1019C000000A62EE020A40EE000A10EE900AFFF7EB
:1019D0006DFB41EC100B05F04FFF51EC100BFFF7C6
:1019E000A9FB9DED021ADDED032A00EE100ADDEDE4
:1019F000000A31EE621ADDED013A20EEAA3A3DEE20
:101A0000AB4A31EE4C1A63EEAA1A24EE2A2A71EE82
:101A10000B2A20EE2A1A9DED070A21EE000A03EE9A
:101A2000230ADDED063A61EE230A7DEE2C3A43EE01
:101A3000040A21EE231ADDED083A03EE231A9DED88
:101A4000043A23EE223A6EEE813A0FEEC23A4FEE9E
:101A5000603A6EEE200A4EEEC00A33EE23BA2FEE45
:101A6000A13ADDED053A03EEE23A6FEE002A2AEEE6
:101A70000A0A23EE822A4EEE412A09EE090A9DED5A
:101A8000041A01EE612A73EE22BA09EEA90A32EEB7
:101A900020CA10EE100AFFF709FB41EC100B05F00D
:101AA000EBFE51EC100BFFF745FB5149884210DA71
:101AB00004F11C000BEE2AAA90EC030A0BEEAA9A82
:101AC0004CEE2A9A3AEE00AA39EE209A79EE819AE3
:101AD00005E03AEE0BAA39EE2B9A79EE8C9AD4ED0A
:101AE00001DA94ED02DAD4ED03BA2DEECA0A0DEE56
:101AF000490A0BEEE90A10EE100AFFF7D7FA53EC89
:101B0000182BFFF7C6F994ED00BA41EC1C0B1BEE45
:101B1000100AFFF7CBFA53EC1C2BFFF713F9FFF772
:101B200009FB2BEE0A0A0EEE100A0DEE290A0BEE47
:101B3000C90A10EE100AFFF7B9FA53EC182BFFF799
:101B4000A8F941EC1C0B1DEE900AFFF7AFFA53EC1D
:101B50001C2BFFF7F7F8FFF7EDFA2BEE090A0EEE54
:101B6000900A0DEEE90A0BEE8A0A10EE100AFFF752
:101B70009DFA53EC182BFFF78CF941EC1C0B1DEE72
:101B8000100AFFF793FA53EC1C2BFFF7DBF8FFF773
:101B9000D1FA2BEE290A0CEE100A0DEE890A0DEE91
:101BA0004A0A10EE100AFFF781FA53EC182BFFF7E0
:101BB00070F941EC180B1BEE900AFFF777FA53EC23
:101BC000182BFFF7BFF8FFF7B5FA08EE100A2EEE54
:101BD0000E0A0FE038050010601900100000FA44EA
:101BE000F8C1F93C35FA8E3CA69B443B000000004E
:101BF0009CC4A03E0EEEAE0A0CEE0C0A08EE080ADB
:101C000007F0DEF86EEE00BA6EEE80CA6CEE008A67
:101C1000C4ED00BA28EE008AC4ED01CAC4ED028A00
:101C200084ED038A94ED0B0AB8EE00AA84ED0A0A4B
:101C300028EE8A0A68EE2A0AB7EE00BA20EE280AD1
:101C400000EEC80A30EE0B0A10EE100AFFF72EFA6B
:101C50002CEEAA0A6BEEAA0A41EC190B20EE280A18
:101C600000EE880A10EE100AFFF720FA41EC100B84
:101C7000B0EE491AF0EE691A05F03EFC9FED438B79
:101C800051EC100B53EC182BFFF703F9FFF752FA46
:101C9000E06294ED010AD4ED030A94ED021A20EEFD
:101CA0000A0A20EE200AD4ED000A60EEAA0A00EE2D
:101CB000810A10EE100AFFF7F9F941EC100B05F05C
:101CC000FFF853EC182B51EC100BFFF7E2F8FFF77D
:101CD00031FA304DA86094ED019A29EE0A0A60EEBF
:101CE000090A94ED020A60EE2A9A49EEC00A30EE23
:101CF0008B0A10EE100AFFF7D9F994ED030AD4ED20
:101D0000000A41EC180B29EE800A60EEAA0A00EEE8
:101D1000890A10EE100AFFF7C9F941EC100BB0EE7A
:101D2000481AF0EE681A05F0E7FB9FED1B1B51EC1B
:101D3000100B53EC112BFFF7ACF8FFF7FBF9E86041
:101D4000D4ED0B0A94ED0A0A154930EEC00A10EEE4
:101D5000100A884202DB206B401E06E010EE100ADB
:101D600010498842206B01D3401C20634FF4B471AA
:101D7000484300EE100AB8EEC00A30EE200A85EDA6
:101D8000040A09B0BDEC108B30BD0000000000005B
:101D9000DCA54CC0D819001000000000DCA54C40A8
:101DA0000000A5430000A5C3014880EC030A70476A
:101DB0006019001070B52A4D00242DED068BB0EE91
:101DC00000AA9FED268ADFED279ADFED27AAB0EE65
:101DD000489AF0EE488A2A1DA91C214801F0F6FF16
:101DE000B5F9000000EE100AB5F90200B8EEC00A1D
:101DF00020EE290A20EE0A0A00EE2A9A00EE100AC6
:101E0000B5F90400B8EEC00A20EE290A20EE0A0A4D
:101E100040EE2A8A00EE100A0320B8EEC00A20EE37
:101E2000290A20EE0A0A00EE2A8A06F0E4FF641C62
:101E3000E4B2C82CCFD30A489FED0C0A2830C9EE73
:101E4000000AC0ED000AC8EE800AC0ED010AC8EE23
:101E5000000AC0ED020ABDEC068B70BD0000000058
:101E600088190010000000380AE81C410000C84230
:101E700010B504462DED0C8B92B0B0EE409AF0EE0A
:101E8000609AB0EE41AAF0EE61AA9FEDCB8B51ECC7
:101E9000120B53EC182BFEF7FCFF41EC1B0B53EC21
:101EA000182B51EC1A0BFEF7F4FF41EC1A0B53EC14
:101EB000182B51EC190BFEF7ECFF41EC190BB0EEAF
:101EC0004B0AF0EE6B0A05F00FFCB0EE408AF0EE24
:101ED000608AB0EE4A0AF0EE6A0A05F005FC53EC9F
:101EE000182B51EC100BFEF7D4FFB0EE4B0AF0EEBE
:101EF0006B0ACDE9000105F05BFCB0EE408AF0EE24
:101F0000608AB0EE490AF0EE690A05F0EDFB53EC89
:101F1000182B51EC100BFEF7BCFF41EC1D0BB0EE83
:101F20004B0AF0EE6B0A05F0DFFBB0EE40CAF0EEB4
:101F300060CAB0EE4A0AF0EE6A0A05F039FCB0EE6B
:101F4000408AF0EE608AB0EE490AF0EE690A05F0C8
:101F50002FFC53EC182B51EC100BFEF79AFF53ECAF
:101F60001C2BFEF796FF53EC1D2BFEF78CFFB0EEFB
:101F70004B0AF0EE6B0ACDE9020105F019FCB0EE58
:101F8000408AF0EE608AB0EE490AF0EE690A05F088
:101F90000FFC53EC182B51EC100BFEF77AFF41ECC1
:101FA0001D0BB0EE4B0AF0EE6B0A05F09DFBB0EE98
:101FB00040CAF0EE60CAB0EE4A0AF0EE6A0A05F0D6
:101FC000F7FBB0EE408AF0EE608AB0EE490AF0EE20
:101FD000690A05F089FB53EC182B51EC100BFEF746
:101FE00058FF53EC1C2BFEF754FF53EC1D2BFEF750
:101FF000A9FEB0EE4B0AF0EE6B0ACDE9040105F044
:10200000D7FBB0EE408AF0EE608AB0EE4A0AF0EEFE
:102010006A0A05F069FB53EC182B51EC100BFEF724
:1020200038FFB0EE4B0AF0EE6B0ACDE9060105F081
:102030005BFBB0EE408AF0EE608AB0EE490AF0EE4B
:10204000690A05F051FB53EC182B51EC100BFEF70D
:1020500020FF41EC1D0BB0EE4B0AF0EE6B0A05F0D1
:10206000A7FBB0EE40CAF0EE60CAB0EE4A0AF0EE4E
:102070006A0A05F09DFBB0EE408AF0EE608AB0EE91
:10208000490AF0EE690A05F093FB53EC182B51EC6A
:10209000100BFEF7FEFE53EC1C2BFEF7FAFE53EC82
:1020A0001D2BFEF74FFEB0EE4B0AF0EE6B0ACDE9AA
:1020B000080105F019FBB0EE408AF0EE608AB0EE40
:1020C000490AF0EE690A05F073FB53EC182B51EC4A
:1020D000100BFEF7DEFE41EC180BB0EE4B0AF0EEF3
:1020E0006B0A05F065FBB0EE40CAF0EE60CAB0EED8
:1020F0004A0AF0EE6A0A05F05BFBB0EE40BAF0EE79
:1021000060BAB0EE490AF0EE690A05F0EDFA53EC58
:102110001B2B51EC100BFEF7BCFE53EC1C2BFEF7F7
:10212000B8FE53EC182BFEF7AEFEB0EE4A0AF0EE06
:102130006A0ACDE90A0105F03BFB51EC100B81F076
:102140000041B0EE4A0AF0EE6A0ACDE90C0105F052
:10215000CBFAB0EE408AF0EE608AB0EE490AF0EEBB
:10216000690A05F025FB53EC182B51EC100BFEF718
:1021700090FEB0EE4A0AF0EE6A0ACDE90E0105F0D3
:10218000B3FAB0EE408AF0EE608AB0EE490AF0EEA3
:10219000690A05F0A9FA53EC182B51EC100BFEF765
:1021A00078FECDE91001482269462046FEF7A6FDDB
:1021B00012B0BDEC0C8B10BD000000A046DF913FBB
:1021C00010B501F0F7FD0028FBD101F06BFA06F025
:1021D0004DFCFFF79DF9BDE8104001F01BBFFEE785
:1021E0002DE9F04F8BB08A4681461E46904601216C
:1021F0000220DDF850B002F03DFA0121480602F05D
:1022000045FA4FF44070079002208DF8200000241A
:102210008DF8224003208DF821002C4F01258DF8E8
:10222000235007A9384601F04FF909220821384602
:1022300001F086F909221146384601F081F98DF83E
:1022400002B08DF803908DF806408DF80840ADF887
:1022500000608DF807408DF809501D4E8DF80A403A
:102260008DF804808DF80B408DF805A06946304646
:1022700000F076FB8DF816408DF817408DF8185059
:10228000ADF80C40ADF81040ADF80E40ADF812407E
:10229000ADF814408DF8195003A800F0F3FA0122AC
:1022A0000221304600F054FB14208DF82400072052
:1022B0008DF825008DF826408DF8275009A802F0EA
:1022C0003DF90BB00020BDE8F08F00000004024093
:1022D0000064004070B5264A0021264800F0B4FB97
:1022E000234D28681038032834D8E97A224E00EBB1
:1022F0008004090906F82410A889102140BADFEDEE
:102300001F0A9FED1F0A07F013FB06EB8404DFEDA5
:102310001D0A84ED010AA87BE97B000140EA111047
:102320000C219FED190A07F003FB84ED020AE97BFB
:10233000287C01F00F0140EA01200C21DFED130A97
:102340009FED130A07F0F4FA84ED030A687C207409
:10235000A87C60742868B0F5407F07D10D4835F837
:102360000B1F018069884180A988818070BD0000B1
:10237000A40700100064004054070010DA0F494021
:10238000DA0F49C000003442000034C20000584255
:10239000000058C2300000102DE9F04F8BB08A4683
:1023A00081461E46904601210220DDF850B002F021
:1023B00061F901218C06204602F068F901212046CE
:1023C00002F070F90021204602F06CF960200790BD
:1023D00002208DF8200000248DF8224003208DF883
:1023E0002100294F01258DF8235007A9384601F017
:1023F0006BF809220521384601F0A2F809220621CE
:10240000384601F09DF88DF812B08DF813908DF8D4
:102410001640ADF810608DF817501C4E8DF81480E2
:1024200006948DF815A004A9304600F099FA0E2004
:102430008DF80A008DF80B408DF80C50ADF8004077
:10244000ADF80440ADF80240ADF80640ADF80850D4
:102450008DF80D50684600F015FA01221021304623
:1024600000F076FA41208DF8240006208DF8250032
:102470008DF826408DF8275009A802F05FF80BB0C0
:102480000020BDE8F08F000000040240006800401A
:1024900030B501212DED028B85B06A46CB4800F0A6
:1024A000D3FA9FEDCB8A0098103803283CD89DF8CA
:1024B0000B10C84D00EB8004090905F82410BDF885
:1024C0000C00102140BAF0EE480A9FEDC30A07F055
:1024D0002FFA05EB840484ED010A9DF80E009DF8A7
:1024E0000F10000140EA11100C21DFEDBC0A9FED36
:1024F000BC0A07F01DFA84ED020A9DF80F009DF852
:10250000101000F00F0041EA00200C21DFEDB50AA9
:102510009FEDB50A07F00CFA84ED030A9DF811004F
:1025200020749DF8120060740098A0F20520032822
:1025300048D8AE4CC0EBC00204EB8200B0F91610D4
:10254000B0F90C30C91AB1F5805F02DD8168491E0F
:1025500004E011F5805F02DA8168491C81609DF812
:102560000B3004F822309DF80C1041709DF80D409E
:1025700084709DF80E20C2709DF80F5005719DF873
:10258000105045719DF8115085719DF81250C5711C
:10259000C58A01EB0321858109B2C18202EB0422C5
:1025A0008282826801EB423100EE101AB8EEC00A56
:1025B0009FED8F1A20EE010A9FED8E1A20EE010A80
:1025C00080ED040A009801238B4AB0F5806F0FD08C
:1025D0008A49A0F5806001382CD001283BD00098B2
:1025E000A0F58071413944D0B0F5A17F41D0DDE044
:1025F000834B8449844C186808609DF80B1019605F
:102600009DF811302360814C9DF812308048236082
:102610009DF80C1001709DF80D1041709DF80E1082
:1026200081709DF80F10C1700068506005B0BDEC5E
:10263000028B30BD77489DF80B2002709DF80C206E
:102640004270BDF80D008880BDF80F00C880BDF84D
:1026500011000881EAE7BDF80B000880BDF80D0005
:102660004880BDF80F006C491081BDF81100088347
:10267000DCE7A0F241116948694D00EB8102644832
:1026800092ED001A083000EB810080ED001A01EB9A
:10269000C1009DF80C4005F8104005EB40009DF886
:1026A0000D4044719DF80E4084719DF80F404470B8
:1026B0009DF8104084709DF81140C4709DF8124040
:1026C0000471B0F803404481B0F801400481B0F8CF
:1026D00005408481B0F90840644200EE104AB8EE2B
:1026E000C00A60EE080ADFED4F1A80EEA10ADFEDA6
:1026F0004E0A474C103404EB810120EE200A82ED93
:10270000000A70EE410AC1ED000AA4F11C01D1EDEE
:10271000041AF4EEE10AF1EE10FA01DDC1ED040A4B
:1027200010EE104A414DAC4202D3B9EE020A06E067
:1027300010EE104A3E4DAC4201DBB1EE020A82EDD2
:10274000000AB0EEC00A10EE104A3A4DB7EE000A89
:10275000AC4204DD0C68641C0C6081ED020A0C685C
:1027600034B9D1ED020AF5EEC00AF1EE10FA0BD041
:1027700000234B600B6082ED001AD1ED020A30EEAF
:10278000C00A81ED020A00E04B604189C289891AC2
:10279000B1F5004F02DB018A491E04E011F5004F3C
:1027A00002DC018A491C01824189C1810098B0F58F
:1027B000407F7FF44FAF2048BDF80B100180BDF87B
:1027C0000D104180BDF80F1081802FE70068004098
:1027D000DA0F494054070010DA0F49C000003442B4
:1027E000000034C200005842000058C2E406001045
:1027F000000000390000B4430B1A0010B8070010A5
:1028000020000010140000103800001024000010F8
:102810004C0000103C000010F019001028000010BF
:10282000C00500100000344377BE9FBD000090C07B
:10283000000090409A9959403000001010B50F4A9E
:1028400086B01080518082ED010A40F22220009073
:1028500000208DF808008DF8090008208DF80A0086
:1028600000206946135C0C18401CE3720828F9D359
:10287000034800F030F906B010BD000068000010F9
:1028800000680040F0B5827A2F4D012191402A68FE
:1028900042F001022A602C4E1C3632688A433260B4
:1028A000294A047B294B0C32A4B914688C43146068
:1028B0004488C78844EA0744877A03EBC707C7F808
:1028C00040460488878844EA0744877A03EBC707B1
:1028D000C7F84446047B012C12D114680C431460E1
:1028E000847A026803EBC4044FEA3242C4F84026FB
:1028F000847A426803EBC4034FEA3242C3F84426A9
:10290000114AC37A121D002B136806D00B431360C3
:102910000D4A0389143213B104E08B43F7E71368BF
:102920008B4313600389012B02D113680B4313609F
:10293000407B012802D1306808433060286820F0CD
:1029400001002860F0BD000000660040006000400B
:10295000002A426901D00A4300E08A43426170477D
:1029600010B50368002223F002030360036843F0FC
:10297000010303604FF6FF7300E0521C4468E40754
:1029800001D19A42F9D14268D2073ED08A79012A10
:1029900002683CD022F080020260CA79012A0268F3
:1029A00038D022F0400202600A7A012A026834D04C
:1029B00022F0200202604A7A012A026830D022F016
:1029C000100202608A7A012A02682CD022F00802E2
:1029D0000260CA7A012A026828D022F0040202604A
:1029E0008A78CC78920742EA04620C7942EA04427F
:1029F0004C79098842EA0452491E0A43C2610168BF
:102A000021F001010160002114E0002010BD42F01E
:102A10008002C1E742F04002C5E742F02002C9E768
:102A200042F01002CDE742F00802D1E742F0040282
:102A3000D5E7491C4268D20701D09942F9D14068D4
:102A4000C007E2D1012010BD10B500EB0113D3F88F
:102A5000B04114F004041472D3F8B04133D0E40848
:102A60005460D3F8B04104F002045472D3F8B44176
:102A700004F00F049472D3F8B441240AD474D3F848
:102A8000B841D472D3F8B841240A1473D3F8B841CA
:102A9000240C5473D3F8B841240E9473D3F8BC417A
:102AA000D473D3F8BC41240A1474D3F8BC41240C69
:102AB0005474D3F8BC311B0E937439B1016941F0E1
:102AC0002001016110BD640D1460CAE7C16841F0C6
:102AD0002001C16010BD30B50246002093685B0143
:102AE00008D49068000101D5012003E09068C0007F
:102AF00037D5022002EB0012D2F8803103F0010337
:102B0000C2F880310B7A73B3D2F880414D681C4310
:102B10004B7A43EAC5031C43C2F880418B7A03F029
:102B20000F038B72D2F8843123F00F03C2F8843183
:102B3000D2F884318C7A2343C2F88431CB7ACC68C2
:102B400043EA0423C2F88831CB7B096943EA0121B7
:102B5000C2F88C11D2F8801141F00101C2F8801145
:102B600030BD042030BDD2F880314C7A23430C882C
:102B700043EA4453C2F88031D0E700002DED048BC6
:102B80009FEDAB0AAB4880ED020A80ED0A0A9FED8B
:102B9000AA0AAA4F80ED000A80ED080A9FEDA88AD4
:102BA000A84DA94E4FF0000BDFEDA88A9FEDA89A23
:102BB000A6F15C04A749B1F91600A0F51670E06112
:102BC000B0F5805F02DDA0F5005004E010F5805FF5
:102BD00002DA00F50050E0619F48006830B101283A
:102BE0000ED002281ED0042857D01CE100218020DE
:102BF00000F046F9012007F039F80021802010E1AB
:102C00009FED960A882084ED020A91ED040A0021C6
:102C100087ED000A00F034F9012007F027F80021C1
:102C20008820FEE08E4897ED000A0068420501D535
:102C300030EE080AC20585ED000A07D597ED000AB7
:102C4000DFED880A30EE200A85ED000AC00414D5B5
:102C5000F0EE400A002030EE880A04F0EBF886ED32
:102C6000000AD5ED000A012030EE880A04F0E2F8EF
:102C700086ED010AC4F820B023E0012020628846D6
:102C8000D1ED040A002004F0D5F886ED000AD8ED55
:102C9000040A012095ED000A0FE0D5ED000AF2EEDE
:102CA000049A002030EEA90A04F0C4F886ED000A68
:102CB000D5ED000A012030EEA90A04F0BBF886ED3C
:102CC000010ADFF8A481D6ED000A94ED010A98ED1F
:102CD000001A41EE000A9FED651ADFF86C91A9F128
:102CE0004C09B9F9000020EE812A00EE900AF8EEB6
:102CF000E00ADFED5F1AA278DFF878A100EEA12AE2
:102D000000EE902ADAF80030A9F10400F8EE600A2B
:102D100022EE202A00EE903AF8EEE00A62EE200A57
:102D2000FDEEE00A10EE901A0180D6ED010A98ED52
:102D3000022AB9F9021000F1740852EE000A00EEFE
:102D4000101AB8EEC00A60EE810A40EE210A00EEC9
:102D5000102AB8EE400A60EE800A00EE103AB8EE93
:102D6000C00A20EE800ABDEEC00A10EE101A4180A3
:102D70004149D8F800C08C450BDAD8F804C08C451E
:102D800007DA217829B9617819B1A0F800B0A0F864
:102D900002B0B0F90010DFF8E480414502DCB0EE8B
:102DA000680A0AE040F2547C614502DBB0EE490A51
:102DB00003E000EE101AB8EEC00ABDEEC00A10EE35
:102DC000101A09B20180B0F902C0C44502DCB0EEAD
:102DD000680A0AE040F25478C44502DBB0EE490AC2
:102DE00003E000EE10CAB8EEC00A80465A43BDEEBA
:102DF000C00A10EE10CAA0F802C0A9F80010A9F885
:102E000002C05143A12000F03BF8012006F02EFF44
:102E1000B8F902004142A0784143DAF8000041438A
:102E2000A12000F04FF8012006F020FFC2E60000CC
:102E300000006144E405001000002042180000106A
:102E40000000B4421C000010D40000100080EAC44E
:102E50000080EA44E406001020000010000000009A
:102E60003C0000100000344348080010CDCCCC3D9D
:102E70006666663F4400001000004343ACF8FFFF65
:102E800000B585B040F24112009200228DF8082072
:102E90008DF8092008228DF80A208DF80B00081201
:102EA0008DF8100008148DF81100080E8DF80F1021
:102EB0008DF8120069460248FFF70DFE05B000BD0F
:102EC0000068004000B585B04FF4A1720092002266
:102ED0008DF808208DF8092008228DF80A208DF839
:102EE0000B0008128DF8100008148DF81100080E60
:102EF0008DF80F108DF8120069460248FFF7EBFDC0
:102F000005B000BD0068004000B585B040F010007D
:102F1000009000208DF808008DF8090008208DF839
:102F20000A00FF208DF80C008DF80D008DF80E00C2
:102F30008DF810008DF80B008DF80F008DF8110042
:102F4000FD208DF8120069460248FFF7C4FD05B068
:102F500000BD00000064004000B585B040F01000E6
:102F6000009000208DF808008DF8090008208DF8E9
:102F70000A00FF208DF80C008DF80D008DF80E0072
:102F80008DF810008DF80B008DF80F008DF81100F2
:102F9000FC208DF8120069460248FFF79CFD05B041
:102FA00000BD00000064004010B5044686B00C204F
:102FB0009FED111ADFED110A05F0DEFE104908221F
:102FC000088044F01001009100218DF808108DF860
:102FD00009108DF80A208DF80B1003918DF8101050
:102FE000010A8DF811108DF8120069460548FFF7A7
:102FF00072FD06B010BD000000005842000058C22B
:10300000640000100064004000B585B040F010007E
:10301000009000208DF808008DF8090008208DF838
:103020000A00FF208DF80C008DF80D008DF80E00C1
:103030008DF810008DF80B008DF80F008DF8110041
:10304000FE208DF8120069460248FFF744FD05B0E6
:1030500000BD0000006400402DE9F04104462DED64
:10306000028B122004EBC001401E91ED480B00289A
:1030700081ED4A0B91ED000B81ED020BF2DC94ED3A
:10308000000B9FED241B84ED020B53EC112B51EC34
:10309000100BFDF7FEFE214E0125A6F19808C4E9AC
:1030A0004A0104EBC50706EBC50097ED4A1B90EDFE
:1030B000000B53EC112B51EC100BFDF7EAFE41EC29
:1030C000180B08EBC50097ED021B90ED000B53ECBD
:1030D000112B51EC100BFDF7DCFE94ED4A1B53EC69
:1030E000112BFDF72FFE53EC182BFDF7CCFE6D1CBA
:1030F000132DC4E94A01D4DB94ED4A0B84ED920B05
:1031000051EC100BFEF716F8BDEC028B00EE100A26
:10311000BDE8F081BEDC0F1C508C063ED0AC000830
:10312000074A904201D2074801E005481038064A94
:103130008B0001EA020101D5C160704781607047D0
:1031400010640240006002407D0F7D0F002901687D
:1031500002D041F0010101E021F00101016070475E
:103160002DE9F043016821F00101016000210160B7
:1031700041608160C1600161212141613C493C4A5B
:103180003D251039904202D18D60BDE8F083384A68
:103190004FF474661832904201D18E60F5E7344ADC
:1031A0004FF474173032904201D18F60EDE7304A0E
:1031B0004FF0746C4832904202D1C1F808C0E4E785
:1031C0002B4B2C4A6033984201D1CA60DDE7284C72
:1031D000294B7834A04201D1CB60D6E7DFF890804C
:1031E000264C08F19008404501D1CC60CDE7DFF8CE
:1031F00080804FF03D5908F1A808404502D1C1F840
:103200000C90C2E71E49DFF878800839404501D1AB
:103210000D60BAE71A4D1835A84201D10E60B4E727
:10322000174D3035A84201D10F60AEE7144D483537
:10323000A84202D1C1F800C0A7E7114D104960357E
:10324000091FA84201D10A609FE70D4A78329042D7
:1032500001D10B6099E70A4A9032904201D10C608B
:1032600093E7074AA83290428FD1C1F800908CE7CB
:10327000106002403D000020400F002000003D2073
:10328000106402400029016802D041F4802101E06D
:1032900021F4802101607047002A026802D042F4C4
:1032A000002201E022F400220260016170474068C0
:1032B00080B27047014600200968090300D501204B
:1032C0007047000030B50368124ACC6813400A68A2
:1032D0002243D1E905452C432243CC6922430C6AA1
:1032E00022434C6A22438C6A22434C6B22438C6BF0
:1032F00022431A430260426922F00703D1E90B24FA
:1033000022431A4342610A6942604A6882608968BE
:10331000C16030BD3F801CF04160704770470000C5
:1033200001490860704700000C3C024070B5064639
:10333000002529B1012927D0022928D04FF4407552
:1033400000F07EF809281ED1124C206820F440704D
:103350002060206828432060206820F0F80020606A
:10336000206846F0020108432060206840F4803065
:10337000206000F065F8216821F0020121602168D9
:1033800021F0F801216070BD4FF48075D8E74FF44B
:103390000075D5E7103C02400D4909200A68D203A8
:1033A00001D5012070470A68D20601D50620704772
:1033B0000A68D20501D5022070470A6812F0EF0FA3
:1033C00001D00720704709688907FBD5082070479E
:1033D0000C3C02400248016841F000410160704726
:1033E000103C024070B50D46064600F029F8092849
:1033F00011D1094C206820F44070206020682060C2
:10340000206840F001002060357000F019F8216854
:1034100021F00101216070BD103C024005480068A8
:10342000002805DA034804490C38016003490160AB
:1034300070470000103C024023016745AB89EFCD87
:1034400008B509208DF80000FFF7A6FF8DF80000F1
:103450009DF800000128F7D09DF8000008BD10B5C8
:10346000FFF7DCFFF120FFF75BFF01215820FFF79A
:103470005DFFBDE81040FFF7ADBF0000044A00212A
:10348000535C4354491CC9B23029F9D3002070471A
:1034900000000E0870B506460A4DFFF7E0FFFFF783
:1034A000BDFF0024E120FFF73BFF315D2819FFF746
:1034B00099FF641CE4B2302CF4D3FFF78BFF00209B
:1034C00070BD000000000E08F0B5002201274FF08B
:1034D000030C0B6807FA02F52B40AB422CD10668AF
:1034E00053000CFA03F4A64306600E79D0F800E00E
:1034F0009E4046EA0E0606600E79012E01D0022E8D
:1035000012D18668A64386604E79D0F808E09E40C6
:1035100046EA0E0686604668AE43466045688E7988
:103520009640B6B235434560C568A543C560CC79C1
:103530009C40C3681C43C460521C102AC9D3F0BD10
:103540004B07DB0E9A40C90810B500EB8100016AF9
:103550000F249C40A1430162016A1143016210BD26
:1035600041837047018370471B4A10B5911E881E26
:1035700000F055FC18480C38B0F9081000EE101A8D
:1035800000F11401B1F90820F8EEC00A00EE102A8B
:10359000B0F90A20B0F90C00B8EEC00A30EEC00A4B
:1035A00000EE902AB1F90A20B8EEE01A00EE902A57
:1035B000F8EEE00A71EE600A01EE100AB1F90C00B3
:1035C000BDE81040F8EEC11A01EE100AB8EEC11ABB
:1035D00031EEC11A00F02CB89419001010B52DED81
:1035E000028B05F035FCFDF754FD41EC180B4FF054
:1035F000E020416982694069891A4FF47A72514327
:10360000B1FBF0F0FDF745FD9FED071B53EC112BCF
:10361000FDF73FFC53EC182BFDF794FBBDEC028B40
:1036200041EC100B10BD0000FCA9F1D24D62503FDF
:1036300010B510EE100A2DED028BF0EE418AB0EEBF
:10364000608AFDF733FD124CC4E9000118EE100A40
:10365000FDF72CFDC4E9940118EE900AFDF726FD54
:10366000224602F5946203C22046FFF7F5FC094C9E
:10367000094884ED040AFFF7EFFC84ED050A0748CA
:10368000FFF7EAFC84ED060ABDEC028B10BD0000DA
:103690007012001060190010C014001010170010F4
:1036A000FEE700002DE9F0471A4E1B4C002506F1FD
:1036B0000C0906F10A0806F108074A464146384651
:1036C00000F0ADFBB6F90800216908442061B6F9A5
:1036D0000A00616908446061B6F90C00A1690844F8
:1036E000A061032005F087FB6D1CEDB2C82DE4D36B
:1036F0002169C82091FBF0F2064914310A81626900
:1037000092FBF0F24A81A26992FBF0F08881BDE859
:10371000F08700008819001038050010194D2DEDB4
:10372000028B05F11406A5F178049FED178AFEF7C8
:1037300001F8FFF719FF05F0F5FA304600F0B0FB8D
:10374000FEF746F894ED040A20EE080ABDEEC00A22
:1037500010EE100A288094ED050A20EE080ABDEE4E
:10376000C00A10EE100A688094ED060A20EE080ADE
:10377000BDEEC00A10EE100AA880012006F076FA0D
:10378000D5E70000D8190010F8C1F93C2DE9FF5F1A
:10379000F7EE001AC0ED4E1A044680ED4F0A9FED79
:1037A000620A00F1380280ED500AC0ED511AC0EDF6
:1037B0005E1A80ED5F0A80ED600AC0ED611AC0ED0F
:1037C000440A80ED451A00F1300104F16000904692
:1037D00007460391FDF7E6F804F168010D46384607
:1037E000FDF702FA04F1580204F15001164638467A
:1037F0000291FDF7D7F8B4F85800A4F8B000B4F877
:103800006A00A4F8B20004F1B002294630460092E2
:10381000FDF7C8F8324604F190010098FCF7A2FDCC
:1038200004F1880104F1800089460190FDF7DCF97C
:1038300034F8800F3146208634F8260C6086DDE9A6
:103840000020FDF7AFF8208E2087608924F83A0F1A
:10385000A21E15464946BA3C0098FDF7A3F8B4F8F5
:10386000B800A4F8A800B4F89A00A4F8AA0004F1DB
:10387000A802174604F198012846FCF773FD294673
:103880003846FCF7F7FD49463046009AFDF78AF8BE
:1038900004F1A002934629460098FDF783F8B4F896
:1038A0008000A4F8C0000127A4F8C27004F1C0028F
:1038B000924641460198FDF775F8B4F84800A4F81F
:1038C000C80004F1C802A4F8CA709146514604F138
:1038D0004800FDF705F934F8A00F524620846784AC
:1038E00049465846FDF75EF851464046039AFCF7B4
:1038F00039FD2088208234F81E1C6182208334F830
:10390000460C6083DDE900215846FDF74BF82A4656
:1039100031460098FDF746F8029A04B02946304631
:10392000BDE8F05FFDF7DCB8000000002DE9F047CE
:10393000834F0446042038800820788021730D4688
:1039400004F1F0001E46A37389008046FDF7EFF9ED
:10395000217B4346012204F13000FCF787FD3988C2
:1039600004F1F80069438046FDF7E1F9217B434605
:10397000012204F13800FCF779FD398804F58870DC
:1039800071438046FDF7D3F9A17B4346012204F140
:103990004800FCF76BFD398804F58C706943694376
:1039A0008046FDF7C4F9217B43460A4604F15000E6
:1039B000FCF75CFD398804F59470694369438046DF
:1039C000FDF7B5F9217B43460A4604F15800FCF7A0
:1039D0004DFD398804F59C70694369438146FDF7C4
:1039E000A6F9398804F5A470694369438046FDF758
:1039F0009EF9217B4B460A4604F16000FCF736FD38
:103A0000217B43460A4604F16800FCF72FFD398804
:103A100004F5BC70714369438146FDF788F9398824
:103A200004F5C470694371438046FDF780F9227B39
:103A3000A17B4B4604F18000FCF718FDA27B217BA3
:103A4000434604F18800FCF711FD398804F5CC7079
:103A5000694369438046FDF76AF9217B43460A467C
:103A600004F19000FCF702FD398804F5D47071432D
:103A700071438046FDF75BF9A17B43460A4604F19A
:103A80009800FCF7F3FC398804F5DC706943714356
:103A90000546FDF74CF9A27B217B2B4604F1A000E3
:103AA000FCF7E4FC217B04F5E4730A4604F1A8006A
:103AB000FCF7DCFC217B04F5EC730A4604F1B00052
:103AC000FCF7D4FC217B04F5F4730A4604F1B8003A
:103AD000FCF7CCFC217B04F5FC73012204F1C0004F
:103AE000FCF7C4FC217B04F50273012204F1C80039
:103AF000FCF7BCFC9FED130ADFED140A84ED3C0AD1
:103B000084ED3D0A9FED100A9FED111A84ED460ADF
:103B100084ED470AC4ED660ADFED0E0A84ED6A1AE9
:103B2000C4ED6B0AC4ED6C0A84ED6D1A84ED6E0A67
:103B3000C4ED6F0AC4ED700A84ED710ABDE8F08728
:103B4000960300106F12833ACDCCCC3D0AD7233CAC
:103B5000AE47C13F0000000010B57521012000F004
:103B6000C7F904460A2005F046F9702C01D001205F
:103B700010BD80226B21012000F020FA0A2005F000
:103B80003AF900226B21012000F018FA0A2005F012
:103B900032F907226821012000F010FA0A2005F00E
:103BA0002AF903226B21012000F008FA0A2005F00F
:103BB00022F900226C21012000F000FA0A2005F011
:103BC0001AF900221A21012000F0F8F90A2005F064
:103BD00012F900221921012000F0F0F90A2005F065
:103BE0000AF900221A21012000F0E8F90A2005F064
:103BF00002F910221B21012000F0E0F90A2005F053
:103C0000FAF800221C21012000F0D8F90A2005F062
:103C1000F2F801223821104600F0D0F90A2005F010
:103C2000EAF801223721104600F0C8F90A2005F011
:103C3000E2F80D222721012000F0C0F90A2005F04A
:103C4000DAF80D226721012000F0B8F90A2005F00A
:103C5000D2F80D222721012000F0B0F90A2005F04A
:103C6000CAF801226B21104600F0A8F90A2005F0DD
:103C7000C2F800226C21012000F0A0F90A2005F012
:103C8000BAF8002010BD10B57521022000F030F9FF
:103C900004460A2005F0AFF8702C01D0012010BDB9
:103CA00080226B21022000F089F90A2005F0A3F898
:103CB00000226B21022000F081F90A2005F09BF818
:103CC00007226821022000F079F90A2005F093F814
:103CD00003226B21022000F071F90A2005F08BF815
:103CE00000226C21022000F069F90A2005F083F817
:103CF00000221A21022000F061F90A2005F07BF869
:103D000000221921022000F059F90A2005F073F869
:103D100000221A21022000F051F90A2005F06BF868
:103D200010221B21022000F049F90A2005F063F857
:103D300000221C21022000F041F90A2005F05BF866
:103D400001223821022000F039F90A2005F053F849
:103D500001223721022000F031F90A2005F04BF84A
:103D60000D222721022000F029F90A2005F043F84E
:103D70000D226721022000F021F90A2005F03BF80E
:103D80000D222721022000F019F90A2005F033F84E
:103D900001226B21022000F011F90A2005F02BF816
:103DA00000226C21022000F009F90A2005F023F816
:103DB000002010BD10B500F04DF9FFF7CDFE18B989
:103DC000FFF761FF002800D0012010BD2DE9FC475E
:103DD00091460F4680466B4606223B21012000F0AB
:103DE000B5F890B9BDF800006B4640BA06B2BDF810
:103DF0000200062240BA05B2BDF804003B2140BAD9
:103E000004B2022000F0A2F810B10120BDE8FC8746
:103E1000A8F800603D80A9F800400020F6E72DE9F1
:103E2000FC479146884606466B4606224321012000
:103E300000F08CF890B9BDF800006B4640BA07B2AC
:103E4000BDF80200062240BA05B2BDF804004321C5
:103E500040BA04B2022000F079F810B10120BDE8A8
:103E6000FC87BDF80210BDF8000049BA40BA09B29B
:103E700000B2BDF80420394401EBD171281A491071
:103E800000EBD07052BA3180401012B2A8F8000096
:103E9000A01800EBD0704010A9F800000020DEE769
:103EA00038B504466B4602224121012000F04EF84D
:103EB000BDF8000040BA00B2FDF7DAF89FED081B2C
:103EC00053EC112BFDF757F89FED071B53EC112B0B
:103ED000FCF738FFFDF72EF92060002038BD000008
:103EE00052B81E85EBDD74400000000000002A403F
:103EF0002DE9F041134D144E0F460446012802D01F
:103F0000022C03D006E01021284601E010213046A3
:103F1000FFF726FB47F0800000F0CEFDFF2000F009
:103F2000CBFD0746012C02D0022C03D006E0102165
:103F3000284601E010213046FFF714FB3846BDE863
:103F4000F081000000080240000002402DE9F04727
:103F5000DFF86080DFF860901D4614460F46064685
:103F6000012802D0022E03D006E01021404601E0D5
:103F700010214846FFF7F4FA47F0800000F09CFD5E
:103F800006E0FF2000F098FD641E05F8010BE4B286
:103F9000002CF6D1012E02D0022E03D006E0102113
:103FA000404601E010214846FFF7DCFA0020BDE85A
:103FB000F087000000080240000002402DE9F041B7
:103FC000124D134E174688460446012802D0022C93
:103FD00003D006E01021284601E010213046FFF70B
:103FE000BFFA404600F068FD384600F065FD012C40
:103FF00002D0022C03D006E01021284601E0102157
:104000003046FFF7AFFA0020BDE8F081000802401B
:10401000000002401CB50121022000F02BFB012012
:104020008DF8040000218DF8061002218DF805108E
:1040300000908DF8070069460248FFF745FA00F046
:1040400003F81CBD0004024001210148FFF788BAB3
:10405000000402402DE9FC410121072000F00AFB89
:104060000121880300F02AFB01248DF8044000257B
:10407000DFF86C8010278DF80650032600978DF826
:10408000056069464046FFF71FFA00978DF8044027
:10409000144F8DF806508DF8056069463846FFF7D5
:1040A00013FA8DF804408DF8074000940E4C8DF8FB
:1040B00006508DF8056069462046FFF705FA012194
:1040C0002046FFF74DFA00F099FC10214046FFF71B
:1040D00049FA10213846FFF745FABDE8FC81000097
:1040E0000008024000000240000402400FB430B556
:1040F0002DED108B85B09DED28AB51EC1A0B81F0A6
:1041000000419DED1A0B0D468DED020B9DED208BB0
:1041100045EC100B04469DED1EFB9DED24EB9DED43
:104120001CDB9DED22CB9DED26BB9DED189B53EC3A
:10413000182B51EC100BFCF7CDFF53EC1A2B51EC64
:10414000180B7DD2FCF7DEFF60D245EC104B53EC30
:10415000192B51EC100BFCF7BDFF60D353EC192B5E
:104160009FEDD40B51EC100BFCF78DFE53EC182B8C
:10417000FCF7E8FD53EC1A2BFCF785FE41EC100B25
:1041800003F07AFB9FEDCD1B51EC100B53EC112B80
:10419000FCF77FFE41EC110B53EC1E2B8DED001B49
:1041A00051EC1D0BFCF76FFE9DED001B53EC112B2A
:1041B000FCF7E1FE9DED020B41EC180B53EC102BCC
:1041C00051EC1F0BFCF7BEFD81F000419DED001B83
:1041D00053EC112BFCF7CFFE41EC190B9FEDB90B03
:1041E0009DED001B53EC102B51EC110BFCF751FE15
:1041F00041EC1A0B53EC1C2B51EC1B0B4CE19DEDCD
:10420000001B53EC112BFCF7B6FEB1E051EC180B80
:1042100081F0004153EC192BFCF75CFF4ED29FED6F
:10422000A50B51EC190B53EC102BFCF78BFD53EC49
:10423000182BFCF787FD53EC1A2BFCF783FD00E0ED
:10424000CFE041EC100B03F017FB9FED9C1B51ECF2
:10425000100B53EC112BFCF71CFE41EC110B8DEDF8
:10426000001B9FED9A0B53EC102BFCF712FE41EC58
:10427000180B53EC1B2B51EC1C0BFCF704FE9DEDB3
:10428000001B53EC112BFCF776FE41EC190B53ECA1
:104290001D2B51EC1E0BFCF7F6FD9DED001B53ECA6
:1042A000112BFCF768FE9DED020B41EC1A0B53EC51
:1042B0001F2B51EC100BFCF7E6FDA0E753EC192B7C
:1042C0009FED7C0B51EC100BFCF7DDFD53EC182B34
:1042D000FCF7D9FD53EC1A2BFCF734FD41EC100B25
:1042E00003F0CAFA9FED751B51EC100B53EC112B28
:1042F000FCF7CFFD41EC110B51EC1F0B8DED001BBA
:104300009DED020B53EC102BFCF7BDFD9DED001B4A
:1043100053EC112BFCF72FFE41EC180B53EC1E2B2A
:1043200051EC1D0BFCF70EFD81F000419DED001BD3
:1043300053EC112BFCF71FFE41EC190B53EC1C2B1B
:1043400051EC1B0BFCF7FEFC81F000419DED001BC6
:1043500053EC112BFCF70FFE41EC1A0B9FED590BA0
:104360009DED001B53EC102B51EC110BFCF791FD54
:1043700041EC1B0B9FED570B51EC180B53EC102B22
:10438000FCF7A8FE17D251EC180B81F0004141EC6C
:10439000180B51EC190B81F0004141EC190B51EC59
:1043A0001A0B81F0004141EC1A0B51EC1B0B81F010
:1043B000004141EC1B0B05B0B0EE480AF0EE680A74
:1043C000B0EE491AF0EE691AB0EE4A2AF0EE6A2A07
:1043D000B0EE4B3AF0EE6B3ABDEC108B30BC5DF8B2
:1043E00014FBFCF78FFE5CD253EC182B51EC190B2D
:1043F000FCF788FEBFF4B2AE51EC190B9FED2D0B0C
:1044000053EC102BFCF79EFC53EC182BFCF73BFDF8
:1044100053EC1A2BFCF737FD41EC100B03F02CFA90
:104420009FED261B51EC100B53EC112BFCF731FDCB
:1044300041EC110B53EC1C2B8DED001B51EC1B0BB5
:10444000FCF721FD9DED001B53EC112BFCF793FDB8
:104450009FED1C0B9DED001B41EC180B53EC102B3A
:1044600051EC110BFCF715FD9DED020B41EC190B06
:1044700053EC102B51EC1F0BFCF764FC81F0004156
:104480009DED001B53EC112BFCF775FD41EC1A0B55
:1044900053EC1E2B51EC1D0BFCF754FC81F000413A
:1044A000ADE653EC1A2B51EC190BFCF72BFEA3D302
:1044B00004E70000000000000000F03F00000000E2
:1044C00000000040000000000000D0BF000000001D
:1044D0000000D03F00000000000000000FB44822A0
:1044E00000B593B069469DED160B8DED000B9DED6B
:1044F0001C0B8DED020B9DED220B8DED040B9DED44
:10450000180B8DED060B9DED1E0B8DED080B9DED33
:10451000240B8DED0A0B9DED1A0B8DED0C0B9DED13
:10452000200B8DED0E0B9DED260B8DED100BFCF78A
:10453000E5FB13B05DF814FBFEE7704730B50F23C1
:10454000C27801780125FAB1144A126801F1E0211C
:1045500002F4E062C2F5E062C2F30722C2F1040491
:10456000D3404278A24084781C401443220181F851
:104570000024007800F01F018D404009800000F108
:10458000E020C0F8005130BD01F01F00854048090F
:10459000800000F1E020C0F8805130BD0CED00E05B
:1045A0000249084302490860704700000000FA050C
:1045B0000CED00E000B585B040F201500090002005
:1045C0008DF808008DF8090008208DF80A001048C1
:1045D000114900888DF80B00000A8DF80C000D4879
:1045E00000898DF80D00000A8DF80E0008898DF8FD
:1045F0000F00000A8DF8100048898DF81100000A9C
:104600008DF8120069460548FEF765FA05B000BD51
:1046100030000010F01900100B1A00100064004068
:10462000F0EE401A31EEE00A71EEE01AB5EEC00A83
:1046300070EEA11AF1EE10FA07DDB4EEC10AF1EE48
:1046400010FA11DD70EE810A10E0B5EEC00AF1EE4D
:1046500010FA0BD8B1EE412AB4EEC20AF1EE10FA0C
:1046600002D270EEC10A01E0F0EE610AB0EE600A1B
:1046700070470000044A0029116801D0014300E09E
:10468000814311607047000030380240044A00291D
:10469000116801D0014300E08143116070470000C0
:1046A00040380240044A0029116801D0014300E06B
:1046B000814311607047000020380240044A0029FD
:1046C000116801D0014300E0814311607047000090
:1046D00044380240044A0029116801D0014300E037
:1046E00081431160704700002438024070B5204BB0
:1046F0001968204C11F00C0104D06610042903D075
:10470000082903D004601BE0066019E0184A121F54
:104710001168C1F38055116801F03F0115B1B6FB76
:10472000F1F101E0B4FBF1F114681268C4F38814EC
:104730006143C2F30142521C5200B1FBF2F101602D
:1047400019680F2202EA11110B4A545C0168E1401A
:1047500041601C68072505EA9424145D21FA04F4DD
:1047600084601B6805EA5333D25CD140C16070BDE0
:10477000083802400024F4009E0300102DE9F043A5
:104780008946804601218FB016460846FFF772FF22
:1047900001214C042046FFF779FF01212046FFF755
:1047A00081FF01212046FFF77DFF01214805FFF72A
:1047B00061FF3F4D072203212846FEF7C1FE02217B
:1047C0008DF8141000248DF8164008208DF815106F
:1047D00004908DF8174004A92846FEF775FE354F62
:1047E000384602F03DFA344800902D15ADF80850D7
:1047F0000420ADF80440ADF80A00ADF80640ADF86D
:104800000C406946384602F0B9FA01224021384688
:1048100002F01DFA1021384602F006FA012240F299
:104820002441384602F091FA0121384602F005FA97
:1048300026208DF8000007208DF801008DF8024039
:1048400001208DF803006846FFF778FE1B4F3846BD
:10485000FEF786FC68040090CDE903461548CDE9D3
:104860000545001D0794CDE901088015CDE90840F4
:104870004FF44030CDE90A040C940D946946384653
:104880000E94FEF71FFD002249463846FEF704FD50
:1048900001213846FEF7F6FC00213846FEF756FCAB
:1048A00001213846FEF752FC0FB0BDE8F08300004E
:1048B0000000024000440040A086010088600240E1
:1048C00010B50021002832D0B0F900201A4B012485
:1048D0009A4223D1B0F902209A421FD1B0F90420A4
:1048E000B2F5257F1AD1B0F906209A4216D1491C9B
:1048F0006429FCDDFFF75EFE0020401C6428FCDD1F
:1049000084F31388BFF34F8F0C4801680C4A01F4FD
:10491000E06111430160BFF34F8FFEE7807A0949E0
:10492000032806D0012803D0022800D10C7010BD46
:104930000220087010BD00006CFDFFFF0CED00E0D0
:104940000400FA0570000010F0B5002855D00029C9
:1049500053D00278437842EA0322C2F30A030B8061
:1049600042788478D20842EA4412C2F30A024A80AA
:104970008478C578A40944EA8504057944EA852445
:10498000C4F30A048C80057946796D0845EAC6159A
:10499000C5F30A05CD804679C6F301168E724679B5
:1049A000B609CE728679C77946EA07268E81067ADD
:1049B000477A46EA0726CE81867AC77A46EA0726EC
:1049C0000E82067B8E74467BCE74867BC77B46EA5E
:1049D00007268E82067C407CA3F580630B80A2F5BF
:1049E00080624A80A4F5806446EA00208C80A5F5A8
:1049F0008065CD80A0F580600881F0BD70B5012193
:104A000088B00846FFF736FE01210D032846FFF760
:104A100055FE02218DF818100024E0208DF81A4070
:104A200005908DF819100120214E8DF81B0005A965
:104A30003046FEF749FD052211463046FEF780FD5F
:104A4000052206213046FEF77BFD05220721304670
:104A5000FEF776FD01212846FFF73CFE002128469F
:104A6000FFF738FE134D0021284600F03FF8ADF85F
:104A700000404FF48270ADF80200ADF808406815B0
:104A8000ADF80A001020ADF80C000720ADF8044086
:104A9000ADF81000ADF80640ADF80E406946284666
:104AA00000F039F80121284600F020F808B070BD68
:104AB000000002400030014070B50B4C0546022159
:104AC000204600F01DF80028F9D02946204600F0C5
:104AD00020F80121204600F013F80028F9D02046E4
:104AE00000F015F8C0B270BD003001400029018807
:104AF00002D041F0400101E021F040010180704707
:104B00000246002012890A4200D0012070478089A5
:104B100070478181704730B502884C8802F4415358
:104B20000A88CD8822438C882C4322430C89224357
:104B30004C8922438C892243CC8922431A43028028
:104B4000828B22F400628283098A018230BD0000D8
:104B500038B54FF44070FFF723FDFDF731FB00241B
:104B600003230622052120460094FDF739FB032389
:104B70000622052100200094FDF70EFC04F04CFEF7
:104B8000A82004F0D1F8142140F28F1001F0E2FEC9
:104B90000223002219460648FEF7C8FE022300221F
:104BA00019460448FEF7C2FEBDE8384001F060BF78
:104BB00048090010600B00100CB500222749009234
:104BC0000192086840F4803008604FF4A043086800
:104BD00000F4003001900098401C0090019810B93A
:104BE00000989842F3D10868800334D501200190E1
:104BF0001A484030026842F0805202601848026849
:104C000042F44042026015480830026802600268BF
:104C100042F400420260026842F4A0520260031FA4
:104C2000104A1A600A6842F080720A600A689201AB
:104C3000FCD50D4940F205720A60016821F00301BC
:104C40000160016841F0020101600168C1F3810166
:104C50000229FAD10CBD01920CBD000000380240BF
:104C60000070004008544007003C02402DED088BC6
:104C7000DFEDFE9A9FEDFE8ADFEDFE8A9FEDFE9A44
:104C8000DFF8F883FE48FD4CD0E900208034C4E909
:104C90000620D8E91E13551A60EB0301C4E904513C
:104CA000C8E91E20F74890ED030ADFEDF70A60EE31
:104CB000200A9FEDF61A80EE810AFBF7DDFAF44830
:104CC000D0ED000AD4E9040120EE20AAFCF7C2F9D5
:104CD00000EE900A9FEDEF1AEF4880EE810AD0EDCA
:104CE000000AB0EE4A1AED48FEF750FDE54890ED97
:104CF000030ADFEDE50A60EE200A9FEDE41A80EE7C
:104D0000810AFBF7B9FAE248D0ED000AD4E90401C0
:104D100020EE20AAFCF79EF900EE900A9FEDDD1A26
:104D2000DD4880EE810AD0ED010AB0EE4A1ADC4877
:104D3000FEF72CFDD84890ED000AD848D0ED3C0A8B
:104D4000D84830EE600A88ED120A90ED010ADFEDD6
:104D5000CE0A30EE200ADFEDD40A04F1E80504F5AE
:104D6000847430EE200A85ED000A90ED061A31EECB
:104D7000601A84ED001A90ED101ADFEDC31A31EEBF
:104D8000C11A31EE201A85ED011A90ED0B1AB1EE21
:104D9000411A71EE600AC4ED010AFBF76DFAD8ED15
:104DA000050AA4F1700620EE200A86ED000A95EDB2
:104DB000010AFBF761FAD8ED050A20EE200A86ED1C
:104DC000010A94ED000AFBF757FA98ED051ADFED9A
:104DD000B70AA4F1680941EE000AC9ED000A94ED92
:104DE000010AFBF749FA98ED051ADFEDB00A41EE2A
:104DF000000AC9ED010A95ED000AFBF779FAD8ED32
:104E0000050AA4F1600720EE200A87ED000A95ED5F
:104E1000010AFBF76DFAD8ED050A20EE200A87EDAE
:104E2000010A94ED000AFBF763FAD8ED050A383D54
:104E300020EE200A85ED000A94ED010AFBF758FAEE
:104E4000D8ED050AA4F17800403C20EE200A85ED5B
:104E5000010AD9ED000A96ED007A97ED006A70EE2E
:104E6000C73AD5ED000A23EEA31A70EEC62A02EE69
:104E7000A21AF1EEC10AC0ED000A99ED011AD6EDB1
:104E8000016AD7ED015A31EE663A30EE652A23EE1B
:104E9000031A02EE021AB1EEC10AB6EE001A60EE73
:104EA000811AB6EE001A63EEA17A80ED010A48304D
:104EB00020EE011AC0ED001A80ED011A98ED064AA5
:104EC000083024EE045AF0EE454A01EE415A41EE14
:104ED000E14AB1EEE44AF1EEC54A87EEA05A63EE2C
:104EE000017A80EC024A283835EE075A87EE807A3C
:104EF00080ED005A77EE266A22EEA17AC0ED016AB3
:104F00000830C7EE201A203571EE861A22EE016AAB
:104F1000C0ED001A86EE001A31EE251A62EE845AB0
:104F200080ED011AC5EEA02A75EE622A22EE245AFF
:104F3000C4ED002A85EE002A36EEC22A84ED012A4D
:104F400023EE842AC2EE203A63EE240A33EEA1BA9D
:104F5000C0EE801A85ED00BA31EE810A85ED010AB6
:104F60009FED530A32EEC00A10EE100AFCF79EF8CD
:104F700041EC1A0B1BEE100AFCF798F841EC100BF1
:104F8000B0EE4A1AF0EE6A1A02F0B6FA51EC100BC3
:104F9000FCF7D0F804F14801086094ED010ADFED58
:104FA000440A30EE600A10EE100AFCF77FF841EC7C
:104FB0001A0B6868FCF77AF841EC100BB0EE4A1A4D
:104FC000F0EE6A1A02F098FA51EC100BFCF7B2F806
:104FD00001EE100A04F14800DFED350A80ED011AF8
:104FE000183800F1700190ED003ADFED311A81EDD3
:104FF000003A90ED012A81ED012AA03991ED000AD5
:10500000083130EE600A60EE000A91ED000A0839BE
:1050100040EE000AB1EEE00A80ED000AD1ED010A8F
:10502000083170EE433A70EEE10A9FED220A60EE1D
:10503000A01AD1ED010A83EE803A40EEA01AF1EEFB
:10504000E10AC0ED010A30EEC22A58309031D0EDAD
:10505000002AC2EE000AC1ED002AD0ED011AC1ED0E
:10506000011A80ED003AC0ED010A25E01F85EB3EF4
:105070009A99193E6666E63ECDCC4C3E780000100B
:1050800088030010D8190010DA0F4940000034439B
:105090006019001000401C4628000010480900104C
:1050A000600B001054070010A356D33E52B81E3EAA
:1050B00052B89E3D6F12833B33EE622A70EEE10AD6
:1050C00008301FED0E3AC2EE002A5FED113AC0EE35
:1050D000801AC0ED002AC0ED011A403800F1080224
:1050E000D0ED002A4834C2ED002AD0ED011AC2EDFD
:1050F000011AD4ED000A60EE830A80EEA32AFE496D
:1051000098ED0B4AD1ED030A74EE600A9FEDFB4A5D
:105110002832203570EE840A683630EEC22A22EE3C
:10512000234A84EE032A21EE034A84EE231A80EDFB
:10513000002A72EE622A82EE802A70EEC10A60EEC8
:10514000A30A80EE831A80ED011A71EE611A2030F5
:10515000D0ED000A81EE801AC2ED000A72EE600AFC
:1051600090ED013A82ED013A80ED002AC0EE801AFE
:1051700080ED011A71EE430A083080EE801AC0ED0E
:10518000001A80ED011A95ED000AD6ED000A30EE06
:10519000600AFBF7ADF8B0EE40AA94ED000AD6ED38
:1051A000000A30EE600AFBF767F8D54F98ED051A54
:1051B000A4F12809D7ED080A60EEC10A60EE20AA22
:1051C00099ED000AD5ED000A30EE600AFBF790F881
:1051D0006AEE80AA94ED000AD5ED000A30EE600A6E
:1051E000FBF74AF8D7ED030A98ED051AA4F1080A6F
:1051F00060EE810A20EE20BA96ED000ADAED000A90
:1052000030EE600AFBF774F84BEE00AA99ED000A45
:10521000D5ED000A30EE600A2AEE2ABAFBF768F8EC
:10522000D8ED050A60EEA00A20EE20AA96ED000A4D
:10523000DAED000A30EE600AFBF75AF86AEE00BABF
:1052400094ED000AD5ED000A30EE600AFBF714F881
:10525000B0EE40AA94ED000AD6ED000A30EE600AE6
:10526000FBF746F86AEE00AA94ED000AD6ED000AB4
:1052700030EE600AFBF700F8B0EE40AA94ED000AA9
:10528000D5ED000A30EE600AFBF732F84AEE40AA8C
:1052900004F118002BEEAA0ACBEE000AC0ED000ABA
:1052A00095ED000AD6ED000A30EE600AFBF720F813
:1052B000B0EE40AA94ED000AD6ED000A30EE600A86
:1052C000FBF716F8D7ED080A98ED051A60EE810A8B
:1052D00060EE20AA99ED000AD5ED000A30EE600AD2
:1052E000FBF706F86AEE80AA94ED000AD5ED000AF5
:1052F00030EE600AFAF7FCFFD7ED030A98ED051AC5
:1053000060EE810A20EE20BA96ED000ADAED000A7E
:1053100030EE600AFAF7ECFF4BEE40AA99ED000A76
:10532000D5ED000A30EE600A2AEE2ABAFAF7E0FF5D
:10533000D8ED050A60EEA00A20EE20AA96ED000A3C
:10534000DAED000A30EE600AFAF7D2FF6AEE00BA30
:1053500094ED000AD5ED000A30EE600AFAF78CFFF2
:10536000B0EE40AA94ED000AD6ED000A30EE600AD5
:10537000FAF7BEFF2AEE00AA94ED000AD6ED000A65
:1053800030EE600AFAF778FFF0EE40AA94ED000ADA
:10539000D5ED000A30EE600AFAF7AAFF0AEEC0AABD
:1053A00004F120002BEE8A0ACBEE000AC0ED000AC1
:1053B00095ED010AD6ED010A30EE600AFAF798FF82
:1053C000B0EE40AA94ED010AD6ED010A30EE600A73
:1053D000FAF752FFD7ED0D0A98ED051A60EEC10AF3
:1053E00060EE20AA99ED010AD5ED010A30EE600ABF
:1053F000FAF77EFF6AEE80AA94ED010AD5ED010A64
:1054000030EE600AFAF738FFD7ED120A98ED051A68
:1054100060EE810A20EE20BA96ED010ADAED010A6B
:1054200030EE600AFAF764FF4BEE00AA99ED010A2C
:10543000D5ED010A30EE600A2AEE2ABAFAF758FFD3
:10544000D8ED050A60EEA00A20EE20AA96ED010A2A
:10545000DAED010A30EE600AFAF74AFF6AEE00BAA6
:1054600094ED010AD5ED010A30EE600AFAF704FF67
:10547000B0EE40AA94ED010AD6ED010A30EE600AC2
:10548000FAF736FF2AEE00AA94ED010AD6ED010ADA
:1054900030EE600AFAF7F0FEF0EE40AA94ED010A51
:1054A000D5ED010A30EE600AFAF722FF0AEEC0AA33
:1054B00004F11800203C10352BEE8A0ACBEE000ACE
:1054C000C0ED010A94ED010AD5ED010A30EE600A43
:1054D000FAF70EFF1036B0EE40AA96ED010AD5EDB0
:1054E000010A30EE600AFAF703FF384698ED051A14
:1054F000D0ED0D0A06E00000D81900100000B442FB
:105500005407001060EE810A484660EE20AA90ED34
:10551000010AD4ED010A30EE600AFAF7E9FE6AEEFC
:1055200080AA96ED010AD4ED010A30EE600AFAF77E
:10553000DFFE3846D0ED120AA4F5B87090ED051ADA
:10554000504660EE810A20EE20BA95ED010AD0EDBA
:10555000010A30EE600AFAF7CBFE4BEE40AA48464D
:10556000D4ED010A90ED010A2AEE2ABA30EE600A63
:10557000FAF7BEFEA4F5B870D0ED050A504660EE0D
:10558000A00A20EE20AA95ED010AD0ED010A30EE26
:10559000600AFAF7ADFE6AEE00BA96ED010AD4EDA4
:1055A000010A30EE600AFAF767FEB0EE40AA96ED07
:1055B000010AD5ED010A30EE600AFAF799FE2AEEEB
:1055C00000AA96ED010AD5ED010A30EE600AFAF75D
:1055D00053FEF0EE40AA96ED010AD4ED010A30EE3A
:1055E000600AFAF785FE0AEEC0AA04F140002834EA
:1055F0002BEE8A0ACBEE000AC0ED010A94ED000AF8
:10560000FAF73AFE04F11000D0ED000A20EE20AACD
:1056100094ED000AFAF76CFE04F11800083DD0ED95
:10562000000AA0F5947920EE200AD5ED000A00EEDC
:1056300020AA89ED00AA94ED010AFAF71DFE04F1F3
:105640001000D0ED010A20EE20AA94ED010AFAF72D
:105650004FFE04F11800D0ED010A20EE200AD5ED2E
:10566000010A00EE20AA89ED01AAFE4E96ED020A7B
:105670009FEDFDAA60EE0A0ADFEDFCAA80EEAA0A01
:10568000FAF7FAFDFA4FD7ED020A20EE20BA96EDAE
:10569000030A60EE0A0A80EEAA0AFAF7EDFD2BEE85
:1056A00000BA96ED020A60EE0A0A80EEAA0AFAF73C
:1056B000E3FDD7ED010A60EE20BA96ED030A60EE35
:1056C0000A0A80EEAA0AFAF713FE0BEE80BA96EDEC
:1056D000020A60EE0A0A80EEAA0AFAF709FED7ED7E
:1056E000000A60EE20BA96ED030A60EE0A0A80EE28
:1056F000AA0AFAF7C1FD0BEE80BADE4E86ED00BABB
:1057000094ED000AFAF7B8FDD6ED000AB1EE041ADE
:1057100004F1400030EEC1BAD0ED000A0838A0F123
:10572000180700EEC0BA90ED000AF0EE000A20EE75
:10573000200AD7ED000A00EE20BA94ED000AFAF72D
:105740009BFD95ED001AD7ED000A21EE201A61EEBF
:10575000200A00EE80BA94ED000AFAF7C9FD04F1C0
:105760002800D5ED000A90ED001A60EE810A00EEE7
:1057700080BA86ED01BA94ED010AFAF77DFDD6ED07
:10578000000AB1EE041A04F1400030EEC1BAD0EDC7
:10579000010A083800EEC0BA90ED010AF0EE000AE6
:1057A00020EE200AD7ED010A00EE20BA94ED010A9E
:1057B000FAF762FD95ED011AD7ED010A21EE201AE4
:1057C00061EE200A00EE80BA94ED010AFAF790FD2E
:1057D00004F12800D5ED010A90ED011A60EE810A6E
:1057E00000EE80BA86ED02BA99ED000ADFEDA20A5A
:1057F00030EEC00AD6ED010A9FEDA01AA0F5A07008
:1058000000EEC10A80ED000AD9ED010A9FED9A1A57
:1058100070EE810A9FED991A99494BEE410AC0ED4D
:10582000010A10EE100A884276DA10EE900A8842D9
:1058300072DA98F80000E0BB98F80100C8B391490B
:105840000020884E086088F8020096ED020AD8ED24
:105850000C0A30EE600A60EE0A0A80EEAA0AFAF735
:1058600047FD894DF0EE490AB5F9040040EE490ABA
:1058700000EE100AB8EEC01ADFED84BAA4F5A274E7
:1058800081EE2B0A40EE290AC4ED000A96ED020AC9
:10589000D8ED0C0A30EE600A60EE0A0A80EEAA0A21
:1058A000FAF726FDB0EE49BAB5F9040000EE09BAE0
:1058B00000E031E000EE100A7548F8EEC00A80EE14
:1058C000AB0A00EE29BA84ED01BA94ED000A10EE9D
:1058D000101A814202DCB0EE480A06E010EE101AFF
:1058E0006C4A914201DBB0EE680A1BEE101A84ED9F
:1058F000000A814202DCB0EE48BA06E01BEE100A54
:105900006449884201DBB0EE68BA84ED01BA9FEDCC
:10591000620A88ED0A0A66E09FED600A012088EDC0
:105920000A0A504E88F80200D8ED0C0A96ED020AD9
:1059300030EE600A60EE0A0A80EEAA0AFAF7D8FC96
:10594000514DF0EE490AB5F9040040EE490A00EE67
:10595000100AB8EEC01ADFED4DBA514C81EE2B0A99
:1059600040EE290AC4ED000A96ED020AD8ED0C0AB1
:1059700030EE600A60EE0A0A80EEAA0AFAF7B8FC76
:10598000B0EE49BAB5F9040000EE09BA00EE100A0B
:105990003F48F8EEC00A80EEAB0A00EE29BA84ED6B
:1059A00001BA94ED000A10EE101A814202DCB0EE4A
:1059B000480A06E010EE101A364A914201DBB0EEBA
:1059C000680A1BEE101A84ED000A814202DCB0EE78
:1059D00048BA06E01BEE100A2E49884201DBB0EE01
:1059E00068BA84ED01BA2F4CDFF888900020A9F145
:1059F0006009A4F1D8070021C8F8241000EB400189
:105A000009EB011307EB8001464691ED000A726A2B
:105A100004EB0211D1ED000A91ED011A60EE800A4B
:105A200021EE001A60EE800A60EE800A41EE000A64
:105A300091ED021A41EE000A91ED031A03EB820187
:105A4000521C0C2A70EE810AC1ED000A7262DEDB84
:105A5000401C0228CFDB1448007800F00101C0F39D
:105A6000800023E0D8190010DA0F494000003443C9
:105A700060190010D8080010C3F514430AD7A33CDE
:105A80000000434344000010B80700100000A54484
:105A90009A99193E6666E63E0000000000007A43CF
:105AA000CC000010C80200103C000010081A00EEE4
:105AB000100AFF48F8EEC00AB0F9020000EE100A22
:105AC000B8EEC00A9FEDFB1A00EE810ADFEDFA0A7C
:105AD00080EE201AB0EE040A21EE000A9FEDF71ABC
